{
  "contractName": "smartcontract",
  "abi": [
    {
      "anonymous": false,
      "inputs": [
        {
          "indexed": false,
          "internalType": "uint256",
          "name": "bookid",
          "type": "uint256"
        },
        {
          "indexed": false,
          "internalType": "string",
          "name": "bookname",
          "type": "string"
        },
        {
          "indexed": false,
          "internalType": "uint256",
          "name": "rent",
          "type": "uint256"
        },
        {
          "indexed": false,
          "internalType": "address",
          "name": "borrower",
          "type": "address"
        }
      ],
      "name": "recordcreated",
      "type": "event"
    },
    {
      "constant": true,
      "inputs": [],
      "name": "bookcount",
      "outputs": [
        {
          "internalType": "uint256",
          "name": "",
          "type": "uint256"
        }
      ],
      "payable": false,
      "stateMutability": "view",
      "type": "function"
    },
    {
      "constant": true,
      "inputs": [],
      "name": "bookname",
      "outputs": [
        {
          "internalType": "string",
          "name": "",
          "type": "string"
        }
      ],
      "payable": false,
      "stateMutability": "view",
      "type": "function"
    },
    {
      "constant": true,
      "inputs": [
        {
          "internalType": "uint256",
          "name": "",
          "type": "uint256"
        }
      ],
      "name": "books",
      "outputs": [
        {
          "internalType": "uint256",
          "name": "bookid",
          "type": "uint256"
        },
        {
          "internalType": "string",
          "name": "bookname",
          "type": "string"
        },
        {
          "internalType": "uint256",
          "name": "rent",
          "type": "uint256"
        },
        {
          "internalType": "address",
          "name": "borrower",
          "type": "address"
        }
      ],
      "payable": false,
      "stateMutability": "view",
      "type": "function"
    },
    {
      "constant": false,
      "inputs": [
        {
          "internalType": "string",
          "name": "_bookname",
          "type": "string"
        },
        {
          "internalType": "uint256",
          "name": "_rent",
          "type": "uint256"
        }
      ],
      "name": "recordbook",
      "outputs": [],
      "payable": false,
      "stateMutability": "nonpayable",
      "type": "function"
    }
  ],
  "bytecode": "0x6080604052600060015534801561001557600080fd5b506105c6806100256000396000f3fe608060405234801561001057600080fd5b506004361061004c5760003560e01c8063687440461461005157806372703a3614610103578063d5c0c415146101ad578063fee32bff1461022a575b600080fd5b61006e6004803603602081101561006757600080fd5b5035610244565b604080518581529081018390526001600160a01b038216606082015260806020808301828152865192840192909252855160a084019187019080838360005b838110156100c55781810151838201526020016100ad565b50505050905090810190601f1680156100f25780820380516001836020036101000a031916815260200191505b509550505050505060405180910390f35b6101ab6004803603604081101561011957600080fd5b81019060208101813564010000000081111561013457600080fd5b82018360208201111561014657600080fd5b8035906020019184600183028401116401000000008311171561016857600080fd5b91908080601f01602080910402602001604051908101604052809392919081815260200183838082843760009201919091525092955050913592506102ff915050565b005b6101b5610462565b6040805160208082528351818301528351919283929083019185019080838360005b838110156101ef5781810151838201526020016101d7565b50505050905090810190601f16801561021c5780820380516001836020036101000a031916815260200191505b509250505060405180910390f35b6102326104f0565b60408051918252519081900360200190f35b60026020818152600092835260409283902080546001808301805487519281161561010002600019011695909504601f81018590048502820185019096528581529094919390929091908301828280156102df5780601f106102b4576101008083540402835291602001916102df565b820191906000526020600020905b8154815290600101906020018083116102c257829003601f168201915b5050505060028301546003909301549192916001600160a01b0316905084565b8151339061030c57600080fd5b6000821161031957600080fd5b6001805481018082556040805160808101825282815260208082018881528284018890526001600160a01b038716606084015260009485526002825292909320815181559151805191949293610374938501929101906104f6565b506040828101516002830155606092830151600390920180546001600160a01b0319166001600160a01b039384161790556001548151818152918201869052918416928101929092526080602080840182815287519285019290925286517fd36c287b76e2bd11342d9e51fc72b984b76cc23eb269e7898ab295cbf298de1a9488938893889360a084019187019080838360005b83811015610420578181015183820152602001610408565b50505050905090810190601f16801561044d5780820380516001836020036101000a031916815260200191505b509550505050505060405180910390a1505050565b6000805460408051602060026001851615610100026000190190941693909304601f810184900484028201840190925281815292918301828280156104e85780601f106104bd576101008083540402835291602001916104e8565b820191906000526020600020905b8154815290600101906020018083116104cb57829003601f168201915b505050505081565b60015481565b828054600181600116156101000203166002900490600052602060002090601f016020900481019282601f1061053757805160ff1916838001178555610564565b82800160010185558215610564579182015b82811115610564578251825591602001919060010190610549565b50610570929150610574565b5090565b61058e91905b80821115610570576000815560010161057a565b9056fea265627a7a72315820b500ef99ed114d22c3cdd26d6f211781a2589a06c210cedba63dc48d396dbe6664736f6c63430005100032",
  "source": "pragma solidity ^0.5.0;\r\n\r\ncontract smartcontract {\r\n    string public bookname;\r\n    uint public bookcount = 0;\r\n    mapping(uint => book) public books;\r\n\r\n    struct book {\r\n        uint bookid;\r\n        string bookname;\r\n        uint rent;\r\n        address borrower;\r\n        \r\n    }\r\n\r\n    event recordcreated(\r\n        uint bookid,\r\n        string bookname,\r\n        uint rent,\r\n        address borrower\r\n        \r\n    );\r\n\r\n    \r\n\r\n     function recordbook(string memory _bookname, uint _rent) public {\r\n\t\r\n\r\n        address borrower=msg.sender;\r\n        require(bytes(_bookname).length > 0);\r\n        require(_rent > 0);\r\n        bookcount ++;\r\n        books[bookcount] = book(bookcount, _bookname,_rent, borrower);\r\n        emit recordcreated(bookcount, _bookname, _rent, borrower);\r\n    }\r\n}",
  "sourcePath": "C:\\Users\\Hritik\\Desktop\\attendance_app_IO-master\\attendance_app_IO-master\\contracts\\smartcontract.sol",
  "compiler": {
    "name": "solc",
    "version": "0.5.16+commit.9c3226ce.Emscripten.clang"
  },
  "schemaVersion": "3.0.23",
  "updatedAt": "2020-04-03T14:01:54.528Z",
  "devdoc": {
    "methods": {}
  },
  "userdoc": {
    "methods": {}
  }
}